:020000040000FA
:1000000010020020D5000000EF00000029030000CE
:1000100000000000000000000000000000000000E0
:10002000000000000000000000000000F3000000DD
:100030000000000000000000F50000003305000093
:10004000A1040000A9040000B1040000BD040000E8
:100050008301000085080000A5080000B108000029
:100060005D030000650300000D050000150500009C
:1000700039030000410300006D080000750800000E
:100080007D080000510300008D0800009508000065
:100090009D08000091040000D10800000505000043
:1000A0006F01000099040000BD080000C5080000B1
:1000B0006D03000049030000150200007B010000F1
:1000C0000348854600F03AF8004800476101000007
:1000D0001002002009480A4A002100A1814200D9EB
:1000E0000244084802600848804708480047FEE785
:1000F000FEE7FEE7FEE7FEE7FEE700000000002067
:100100000000000008ED00E0F9070000C100000059
:1001100030B50B46014600202022012409E00D469F
:10012000D5409D4205D31D469540491B2546954027
:1001300040191546521E002DF1DC30BD064C01253C
:10014000064E05E0E36807CC2B430C3C984710347F
:10015000B442F7D3FFF7B8FF1C0B00003C0B0000C4
:1001600080B500F049FB00F009FC002080BD80B59F
:10017000C046C046C046C04680BD80B5C046C046E9
:1001800080BD80B5C046C04680BD0000B0B5002827
:100190000BDB1F23034001249C401B4B1C600323EB
:1001A00004469C43194BE31806E00F230340083B29
:1001B0000324A343134C1B19C400182525408901AF
:1001C000C9B2A940FF24AC401D68A5430D431D6082
:1001D000012A08D1002813DB1F210840012181409A
:1001E0000B480160B0BD00280ADB1F210840012137
:1001F00081408020064A1150BFF34F8FBFF36F8FAD
:10020000B0BDC0461CED00E080E200E000E400E08C
:1002100000E100E080B5C046C046C046C04680BD93
:100220000246012003468B4011681940002900D185
:100230000846704710B5044A80180024224600F092
:100240006DF9204610BDC046100E024080B5034A2D
:100250008018012200F062F9002080BD140D0240D8
:1002600080B592001018034A8018012200F056F958
:10027000002080BD300D024080B5024A8018FFF793
:10028000CFFF80BD000E0240FEB515460E46019020
:100290001C49471838460C30002431462246029447
:1002A000194B9847B000019908181849445038462E
:1002B00008302A783146144CA0472A79384631460E
:1002C000A04738461C302A7A3146A04738462030AD
:1002D0002A7B3146A047384624302A7C3146A04745
:1002E0002C372A7D38463146A047A8690121C90329
:1002F000074A13688B43C00380B21843106002980A
:1003000003B0F0BD000D02401D050000000C0240CE
:10031000080F024080B5034A8018012200F0FEF861
:10032000002080BD100D024081B000200090009898
:100330000028FCD001B0704780B5C046C04680BDE3
:1003400080B5C046C04680BD80B5C046C04680BDB1
:1003500080B500F00FF8C046C04680BD80B5C046ED
:10036000C04680BD80B5C046C04680BD80B5C04691
:10037000C04680BD10B5054C204600F02CF8012881
:1003800002D1204600F012F810BDC046000F004018
:1003900005490A68042313430B6001228240086860
:1003A0001043086030BF704710ED00E080B5143096
:1003B00000210A4600F0B2F880BD80B50A460C3034
:1003C000002100F0ABF880BD80B50A460C300A2150
:1003D00000F0A4F880BD80B510300021FFF720FFA9
:1003E00080BD0000B0B50722D2020B68DB021340CB
:1003F000C46894431C43C4604A68120130231A4005
:10040000C4689C431443C460012253028C68640294
:100410001C40C5689D432543C5601202CB681B0282
:100420001340C46894431C43C4600A69D200082383
:100430001A40C4689C431443C4604A699200042370
:100440001A40C4689C431443C4608A695200022362
:100450001A40C4689C431443C4607D22D4000A4AF5
:10046000631E144207D0C46880252C421C46F7D076
:1004700009221B0406D0898B4268044B13400B43AE
:10048000436000221046B0BDFFFF00000000FFFFE8
:1004900080B5C046C04680BD80B5C046C04680BD60
:1004A00080B500F011F880BD80B5C046C04680BD63
:1004B00080B5C046C046C046C04680BD80B5C04677
:1004C000C046C046C04680BD10B500200221FFF7DF
:1004D000D3FE012813D10A4C2078012805D14020F1
:1004E0000821FFF7B3FE002004E040200821FFF7B9
:1004F00011FF0120207000200221FFF79BFE10BD9C
:100500000000002080B5C046C04680BD80B5C04612
:10051000C04680BD80B5C046C04680BD01238B402B
:10052000012A02D10168194301E001689943016081
:10053000704780B5C046C04680BD0000F8B50C4687
:100540000146474D9648A8609648A8602E6A042048
:10055000042900D980E0C0467944097949008F44D4
:1005600002142F425E000120002C014600D12146DA
:100570002A6882430A432A600020002C6CD0E96874
:100580000122D2021142FAD066E0012001072A6A54
:100590000A432A6235490A68032313430B6029681A
:1005A00002229143002C00D12046400001432960E3
:1005B0000020002C50D0296940221142FBD04BE092
:1005C0002868042188430121002C00D1214689009C
:1005D000084328600020002C3ED0696901221203E4
:1005E0001142FAD038E0012001072A6A0A432A6240
:1005F000032189031C4A13680B43136029680822EE
:100600009143002C00D12046C00001432960002006
:10061000002C21D0A96940221142FBD01CE0012707
:100620003804296A014329620E4801683943016090
:10063000142000F05BF9286810218843002C00D1B9
:1006400027463901084328600020002C04D0E96BBC
:10065000012292041142FAD02E6201B0F0BDC046D0
:1006600000200040002400408C0D02404C1D024040
:10067000FEB53E4807884188029181880191C6886D
:10068000048C0B20C143734D6858420907231A405C
:10069000042A18D80096364892002E4601A55259D1
:1006A00035469746B90600005F070000CB060000FC
:1006B000E3060000E90600002A68684C2240BA42BE
:1006C0001ED12C484BE0002049E0A868604D054051
:1006D0004B2040020122D203A54200D010463546ED
:1006E0003DE00120C0033AE02A6B03241440032CB0
:1006F0002FD12A68594C2240BA4208D11D4C29E01A
:100700002A682240029EB24208D11B4827E02A688C
:100710002240029EB24208D1174C1BE02A682240B8
:10072000019EB24208D1154819E02A682240019E74
:10073000B24208D1114C0DE02A682240009CA2422E
:100740000DD00F480BE02A682240009CA24200D046
:100750000B480446286B42090F201040604369583B
:10076000090A1940C84003B0F0BDC046000C100093
:1007700000127A0000366E01408651010024F40018
:1007800000093D0080B50A4601460448044B436019
:10079000044B4360FFF7C2FE002080BD04200040F0
:1007A0005A5A0000A5A5000070B50C460546A806DB
:1007B0000C4802D4294622460FE020218D43061D15
:1007C000304629462246FFF7A9FE0748032D01D1EE
:1007D000047004E0027803213046FFF79FFE0020FA
:1007E00070BDC046202000400800002080B5FFF703
:1007F0003FFF6149086080BD10B51448418B144A21
:100800000A40144CA168144B0B401343A3600088AA
:10081000124901402068124A02400A432260FFF751
:10082000E5FF60690121090762690A4362610D49B8
:10083000CA680D4B1340CB600A68B0231A430A60A4
:100840000A6A1A430A62606110BDC046080C1000B3
:10085000FF0300000C20004000FCFFFFFF0700002A
:1008600000F8FFFF401D02404FFF000080B5C0466A
:10087000C04680BD80B5C046C04680BD80B5C0467C
:10088000C04680BD80B5C046C04680BD80B5C0466C
:10089000C04680BD80B5C046C04680BD80B5C0465C
:1008A000C04680BD80B5C046C046C046C04680BD7B
:1008B00080B5C046C046C046C04680BD80B5C04673
:1008C000C04680BD80B5C046C046C046C04680BD5B
:1008D00080B5C046C04680BD002804D105E0002296
:1008E0000270401C491E0029F9D17047F8B5204D0F
:1008F000204969600021A960052129601E4F0B4C29
:100900000CE00020A86038682146FFF701FC194977
:10091000491C081AA9688142FCD83046461E0028A6
:10092000EFD12868012188432860F8BDA086010026
:10093000F8B50F4C0F4961600026A66005212160C3
:100940000D4F0CE0A6607D20C1003868FFF7E0FB8A
:100950000849491C081AA1688142FCD82846451E4E
:100960000028EFD12068012188432060F8BDC046EF
:1009700010E000E0FFFFFF0004000020F0B58DB0A4
:100980001C260124544D304602962146A8472F4686
:10099000069407940894002509950A95022104916C
:1009A00005AA4E4B2846984730462146B84706953B
:1009B0000895099540270821039105AE384632462F
:1009C000464B98470921019138463246434B984798
:1009D000C820FFF7ADFF38460399FFF79BFC384668
:1009E000019E3146FFF796FC04982146FFF7A6FDCD
:1009F00005AF20213846FFF76FFF30462146364AC3
:100A00009047E003B883089507950320019006906E
:100A100009950A950B94324E30463946FFF7E2FCB1
:100A20003046FFF7C3FC30462146FFF7CDFC1120CE
:100A300004992246FFF7AAFB30462146FFF7BDFC8A
:100A40007D2087013846FFF773FF02982146224A2E
:100A5000904703982146FFF795FE2248C560C5647C
:100A60008C214550CC2145501F49CD60CD641F4A93
:100A700002601F4B036480268251C02682510A60A7
:100A80000A641C4E46624366A423C250E423C2504B
:100A90004A624A66C037076228460499019E324678
:100AA000FFF7DEFB284631462246FFF76FFB124E6A
:100AB0000020FFF76DFC4024092520462946FFF75A
:100AC000C5FB3068401C30600120FFF731FF204635
:100AD0002946FFF71FFCEBE7A90700008902000089
:100AE000000F0040000D0240001D0240FFFF00000B
:100AF000FFFC0000FFDF00000C00002002E008C83F
:100B0000121F08C1002AFAD170477047002001E087
:100B100001C1121F002AFBD170470000400B0000EA
:100B20000000002008000000FC0A0000480B000044
:100B300008000020080200000C0B0000000000006C
:080B40000100000000093D0066
:04000005000000C136
:00000001FF
